:100000000C9436000C945E000C945E000C945E0020
:100010000C945E000C945E000C945E000C945E00E8
:100020000C945E000C945E000C945E000C945E00D8
:100030000C945E000C945E000C945E000C945E00C8
:100040000C946E050C945E000C9421040C94EF0546
:100050000C945E000C945E000C945E000C945E00A8
:100060000C945E000C945E001D06150611241FBE44
:10007000CFEFD8E0DEBFCDBF12E0A0E0B1E0E6E513
:10008000F8E102C005900D92AE35B107D9F723E033
:10009000AEE5B2E001C01D92A338B207E1F710E06F
:1000A000C5E3D0E004C02197FE010E94130CC433C5
:1000B000D107C9F70E9489070C941E0C0C9400000C
:1000C000089580E090E00895FC01538D448D252F24
:1000D00030E0842F90E0821B930B541710F0CF96E2
:1000E000089501970895FC01918D828D981761F014
:1000F000828DDF01A80FB11D5D968C91928D9F5F5F
:100100009F73928F90E008958FEF9FEF0895FC0109
:10011000918D828D981731F0828DE80FF11D858DBC
:1001200090E008958FEF9FEF0895FC01918D228D4F
:10013000892F90E0805C9F4F821B91098F739927D4
:10014000089580E090E0892B29F00E940F0581112D
:100150000C94000008950895FC01A585B6851097BC
:1001600071F0ED91FC9111979C012A5F3F4F048043
:10017000F581E02D44E150E0BC01CD0109940895E2
:10018000CB0108957F928F929F92AF92BF92CF92B0
:10019000DF92EF92FF920F931F93CF93DF93EC01C7
:1001A00049015A018B01C12CD12C7601C814D90404
:1001B000EA04FB0484F5F80171908F018F8580FFBC
:1001C0000BC0E881F9810084F185E02D20E144E055
:1001D00060E070E0CE010995EB85FC858D859E85FC
:1001E000E817F90738F470828B859C8501969C8707
:1001F0008B870BC0E881F981672D70E0028CF38D4D
:10020000E02DCE010995019649F02FEFC21AD20ACE
:10021000E20AF20ACBCFB401C50102C0B601C701A0
:10022000DF91CF911F910F91FF90EF90DF90CF90D2
:10023000BF90AF909F908F907F900895CF93DF9362
:10024000EC01E881F9810288F389E02D09958F3F5F
:100250002FEF920731F02D813E812F5F3F4F3E837C
:100260002D83DF91CF9108958FEF9FEF089560E088
:1002700070E0CB01089580E090E00895CB010895EF
:10028000CF93DF93EC0188899989DC01ED91FC9192
:100290000084F185E02D0995892BA9F38889998936
:1002A000DC01ED91FC910284F385E02DDF91CF918B
:1002B0000994CF93DF93EC0188899989DC01ED9152
:1002C000FC910084F185E02D0995892BA9F388899B
:1002D0009989DC01ED91FC910484F585E02DDF9195
:1002E000CF910994AF92BF92CF92DF92EF92FF929B
:1002F0000F931F93CF93DF9300D000D0CDB7DEB71D
:100300008C015B01C12CD12C7601F8018089918987
:10031000DC01ED91FC910284F385E02D29833A8381
:100320004B835C83099529813A814B815C818F3FA6
:1003300071F0C216D306E406F5064CF4D5018D9390
:100340005D01BFEFCB1ADB0AEB0AFB0ADECFC70168
:10035000B6010F900F900F900F90DF91CF911F91EA
:100360000F91FF90EF90DF90CF90BF90AF900895E6
:10037000DC0150968D919C915197DC01ED91FC919F
:100380000084F185E02D099480E090E0089580E0FC
:1003900090E0089580E090E0089580E090E0089576
:1003A0000895CF93DF93C0915E02D0915F02E88100
:1003B000F9810084F185E02DCE010995892BB9F3EF
:1003C000E881F9810284F385E02DCE01DF91CF91A0
:1003D00009941F93CF93DF93182FC0915E02D091A1
:1003E0005F028A3041F4E881F9810190F081E02DCB
:1003F0006DE0CE010995E881F9810190F081E02D51
:10040000612FCE01099521E030E0019711F420E041
:1004100030E0C901DF91CF911F9108950C948809B4
:100420000C9488090C9488090C9488090C94880908
:10043000089508950C948809DC01ED91FC9136979C
:1004400020813181820F931F0C941A02FB012081BD
:100450003181FC0131832083FB0142815381F90109
:10046000369720813181FC01E20FF31F51834083D5
:1004700008952AE531E0FC013183208324E631E050
:10048000318F208F6AE671E00C942602DC01ED9139
:10049000FC91369720813181820F931F0C94390291
:1004A000CF93DF93EC010E943902CE01DF91CF910F
:1004B0000C948809DC01ED91FC9136972081318103
:1004C000820F931F0C9450020C948809089508958C
:1004D0000C948809DC01ED91FC91369720813181E3
:1004E000820F931F0C946802FB0120813181FC0173
:1004F00031832083FB0142815381F90136972081AA
:100500003181FC01E20FF31F51834083089522EDF6
:1005100031E0FC01318320832CED31E0358B248BDD
:1005200062EE71E00C947402DC01ED91FC9136975F
:1005300020813181820F931F0C948702CF93DF9328
:10054000EC010E948702CE01DF91CF910C948809C3
:10055000DC01ED91FC91369720813181820F931F50
:100560000C949E020C9488090F931F93CF93DF93F2
:100570008C01EB016F3F8FEF780719F480E090E07A
:100580000FC06A3031F46DE0F801808991890E94D2
:10059000B8056C2FF801808991890E94B805CE01B9
:1005A000DF91CF911F910F9108958F929F92BF92EB
:1005B000CF92DF92EF92FF920F931F93CF93DF932F
:1005C00000D000D0CDB7DEB78C014B01C12CD12CAF
:1005D0007601C216D306E406F50644F5F401B1909F
:1005E0004F01FAE0BF120EC06DE0F80180899189D9
:1005F00029833A834B835C830E94B8055C814B81DD
:100600003A8129816B2DF8018089918929833A8368
:100610004B835C830E94B805FFEFCF1ADF0AEF0A15
:10062000FF0A5C814B813A812981D3CFCA01B9018C
:100630000F900F900F900F90DF91CF911F910F911E
:10064000FF90EF90DF90CF90BF909F908F90089594
:100650004F925F926F927F928F929F92AF92BF92D2
:10066000CF92DF92EF92FF920F931F93CF93DF937E
:10067000EB01AA80BB809D800F89188DB50180E0B9
:1006800090E00E94C80A2F85388949895A890E94BA
:100690007F0B2B893C894D895E890E94270A6B015B
:1006A0007C012B013C018CE192E00E941B05892D0D
:1006B00090E00E94BF0588E292E00E941B05C50100
:1006C0000E94BF0581E392E00E941B05A7019601ED
:1006D000C701B6010E94EC0B882319F080E492E078
:1006E0001AC046015701E894B7F82FEF3FEF4FE7E4
:1006F0005FE7C501B4010E94EC0B81110FC02FEF21
:100700003FEF4FE75FE7C501B4010E94940A181656
:100710002CF484E492E00E941B0578C02FEF3FEF99
:100720004FE75FE4C701B6010E947A0B18161CF46C
:1007300088E492E0F0CF2FEF3FEF4FE75FECC70187
:10074000B6010E94940A87FDF3CF20E030E0A901B2
:10075000C701B6010E94940A87FF0BC06DE280E6D4
:1007600092E00E94B8052601370177FA709477F875
:1007700070942AE037ED43EA5BE3C301B2010E94C3
:10078000280A4B015C010E94990A6B017C010E94BE
:10079000C80A9B01AC01C501B4010E94270A4B01A4
:1007A0005C014AE0C701B6010E942D056EE280E6B9
:1007B00092E00E94B80520E030E040E251E4C5013B
:1007C000B4010E947F0B4B015C010E94990A6B01EE
:1007D000E12CF12C4AE0C701B6010E942D05C701AA
:1007E000B6010E94C80A9B01AC01C501B4010E9478
:1007F000270A20E030E040E251E40E947F0B0E9493
:10080000990A80E090E04AE00E942D058FE292E094
:100810000E941B05C8010E941B058CE492E0DF9139
:10082000CF911F910F91FF90EF90DF90CF90BF90ED
:10083000AF909F908F907F906F905F904F900C94AF
:100840001B051F920F920FB60F9211242F938F93B7
:100850009F93EF93FF93E0917002F091710280817A
:10086000E0917602F091770282FD12C09081809132
:1008700079028F5F8F7320917A02821751F0E09195
:100880007902F0E0E05AFD4F958F8093790201C024
:100890008081FF91EF919F918F912F910F900FBECB
:1008A0000F901F901895FC01848DDF01A80FB11DDA
:1008B000A35ABF4F2C91848D90E001968F73992796
:1008C000848FA689B7892C93A089B1898C91806483
:1008D0008C93938D848D981306C00288F389E02D44
:1008E00080818F7D80830895EF92FF920F931F93F5
:1008F000CF93DF93EC0181E0888F9B8D8C8D9813D3
:1009000005C0E889F989808185FD24C0F62E0B8D0C
:1009100010E00F5F1F4F0F731127E02E8C8DE81230
:100920000CC00FB607FCFACFE889F989808185FFF2
:10093000F5CFCE010E945304F1CF8B8DFE01E80F5D
:10094000F11DE35AFF4FF0820B8FEA89FB8980810A
:10095000806207C0EE89FF896083E889F989808118
:100960008064808381E090E0DF91CF911F910F91AF
:10097000FF90EF900895CF93DF93EC01888D88234B
:10098000C9F0EA89FB89808185FD05C0A889B989FC
:100990008C9186FD0FC00FB607FCF5CF808185FFD7
:1009A000F2CFA889B9898C9185FFEDCFCE010E9445
:1009B0005304E7CFDF91CF910895089508950895E6
:1009C0000895089508950895CF92DF92EF92FF92CF
:1009D0000F931F93CF93DF936C017A018B01C0E0DB
:1009E000D0E0CE15DF0589F0D8016D918D01D601DB
:1009F000ED91FC910190F081E02DC6010995892BC4
:100A000011F47E0102C02196ECCFC701DF91CF9196
:100A10001F910F91FF90EF90DF90CF90089580E6A7
:100A200092E00E94950021E0892B09F420E0822FBA
:100A300008950E94190C009769F0FC0101900020B4
:100A4000E9F73197AF01481B590BBC0180E692E0F2
:100A50000C94E40480E090E008958F929F92AF920E
:100A6000BF920F931F93CF93DF93CDB7DEB7A197BC
:100A70000FB6F894DEBF0FBECDBF19A2423008F406
:100A80004AE08E010F5D1F4F842E912CA12CB12CBA
:100A9000A50194010E94F10BE62FB901CA01015092
:100AA0001109EA3014F4E05D01C0E95CD801EC936F
:100AB000232B242B252B61F7C8010E941B05A1962F
:100AC0000FB6F894DEBF0FBECDBFDF91CF911F915F
:100AD0000F91BF90AF909F908F9008951F920F92AB
:100AE0000FB60F9211242F933F938F939F93AF9341
:100AF000BF938091020390910303A0910403B091EE
:100B000005033091010323E0230F2D3720F40196D4
:100B1000A11DB11D05C026E8230F0296A11DB11D20
:100B2000209301038093020390930303A093040393
:100B3000B09305038091FD029091FE02A091FF0207
:100B4000B09100030196A11DB11D8093FD02909309
:100B5000FE02A093FF02B0930003BF91AF919F915B
:100B60008F913F912F910F900FBE0F901F9018956E
:100B7000DC01ED91FC910190F081E02D0994CF9280
:100B8000DF92EF92FF92CF93DF936C01990FEE0803
:100B9000FF08F7FE19C06DE280E692E00E94B805FA
:100BA000EC0166277727CB016C197D098E099F0917
:100BB0004AE00E942D058C0F9D1FDF91CF91FF9081
:100BC000EF90DF90CF9008954AE0C701B601DF9122
:100BD000CF91FF90EF90DF90CF900C942D051F9256
:100BE0000F920FB60F9211242F933F934F935F9361
:100BF0006F937F938F939F93AF93BF93EF93FF93E5
:100C000080E692E00E945304FF91EF91BF91AF9173
:100C10009F918F917F916F915F914F913F912F9114
:100C20000F900FBE0F901F90189581E293E00E94E5
:100C300039028FE493E00C948702CF92DF92EF9217
:100C4000FF9280E692E0109263021092620248EEF8
:100C500053E060E070E0409364025093650260935B
:100C600066027093670222E331E0309361022093C1
:100C7000600225EC30E030936D0220936C0224EC8E
:100C800030E030936F0220936E0220EC30E030931E
:100C900071022093700221EC30E0309373022093B4
:100CA000720222EC30E0309375022093740226EC3D
:100CB00030E03093770220937602109279021092FE
:100CC0007A0210927B0210927C0261E270E07093D3
:100CD0006703609366031092680310926903109291
:100CE0006A0326E0C22ED12CE12CF12CC0926B03BA
:100CF000D0926C03E0926D03F0926E0310926F033A
:100D000010927003109271031092720340E24093AC
:100D1000730310927503109274031092780321E507
:100D200033E0309377032093760322ED31E0309364
:100D3000500320934F032CED31E030936403209354
:100D400063031092550310925403109257031092AC
:100D50005603109259031092580310925B0310929D
:100D60005A0310925D0310925C0310925F0310927D
:100D70005E0320EB31E030935203209351039093B4
:100D800062038093610350E15093600370933D03CD
:100D900060933C0310923E0310923F031092400375
:100DA000C0924103D0924203E0924303F092440385
:100DB0001092450310924603109247031092480385
:100DC0004093490310924B0310924A0310924E0332
:100DD00010922303109224031092250310922603ED
:100DE00047E253E050934D0340934C034AE551E0F2
:100DF000509322034093210344E651E050933A0379
:100E00004093390310922B0310922A0310922D0362
:100E100010922C0310922F0310922E031092310384
:100E20001092300310923303109232031092350364
:100E300010923403309328032093270390933803B0
:100E40008093370328E02093360390935F028093CA
:100E50005E0261ED71E089EE91E00E948C0888E00D
:100E600092E0909309038093080310920B03109271
:100E70000A038EE080930D0310920E0310920F036D
:100E80001092100310921103109214031092160383
:100E90001092150388EC90E00E94F30880931203EF
:100EA0009093130324E620930C03FC0188539F4F77
:100EB000E817F90719F011921192FACF84E192E044
:100EC000909309038093080383E991E0A0EABBE3D0
:100ED0008093170390931803A0931903B0931A03F8
:100EE00010921B0310921C0310921D0310921E03FC
:100EF0008FE492E09093200380931F0386EF91E0AC
:100F00009093070380930603FF90EF90DF90CF90BC
:100F10000895789484B5826084BD84B5816084BD71
:100F200085B5826085BD85B5816085BD80916E0087
:100F3000816080936E0010928100809181008260B8
:100F400080938100809181008160809381008091F5
:100F500080008160809380008091B10084608093E4
:100F6000B1008091B00081608093B00080917A00E0
:100F7000846080937A0080917A00826080937A0006
:100F800080917A00816080937A0080917A008068F5
:100F900080937A001092C100E0917002F09171028A
:100FA00082E08083E0916C02F0916D021082E0910A
:100FB0006E02F0916F0280E1808310927802E091DE
:100FC0007402F091750286E08083E0917202F091E4
:100FD0007302808180618083E0917202F0917302DC
:100FE000808188608083E0917202F0917302808139
:100FF00080688083E0917202F091730280818F7D1E
:10100000808381E592E00E941B0586E093E0909347
:1010100016038093150380911403309112032091DD
:101020001303E32FF22FE80FF11DE80FF11D4081AC
:10103000518180910E0390910F03A0911003B09104
:101040001103841B950BA109B10980930E039093A2
:101050000F03A0931003B093110380910D038E3002
:1010600008F08E508770806480937C0080917A00B5
:10107000806480937A0080917A0086FDFCCF809115
:1010800078004091790090E0942B91838083409187
:101090001403E32FF22FE40FF11DE40FF11D208163
:1010A0003181C0900E03D0900F03E0901003F090B8
:1010B0001103C701B601620F731F811D911D60935B
:1010C0000E0370930F03809310039093110331E08C
:1010D000340F3093140320910C03321710F0109248
:1010E000140330E040E050E00E94F10B69017A0106
:1010F00040910A0350910B034C155D0551F060E0DF
:1011000070E088E093E00E94AC00D0920B03C092A4
:101110000A030E94A1007FCF0F931F93CF93DF9309
:10112000009731F46115710519F480E090E03AC040
:101130008B01EC016EE070E081E090E00E94D70846
:10114000FC01892B91F380E883830115110571F06F
:101150001387028781E883838091790390917A03D2
:10116000892B21F4F0937A03E09379032097C9F057
:10117000D187C08783818260838380917B03909134
:101180007C03892B71F4F0937C03E0937B038091C3
:101190007D0390917E03892B21F4F0937E03E093ED
:1011A0007D03CF01DF91CF911F910F9108950F9390
:1011B0001F93CF93DF93869F8001879F100D969F8B
:1011C000100D1124C8010E94F308EC01009729F0CA
:1011D000A80160E070E00E94200ACE01DF91CF916B
:1011E0001F910F910895CF93DF938230910510F4F2
:1011F00082E090E0E0918103F091820320E030E012
:10120000C0E0D0E0309711F1408151814817590773
:10121000C0F04817590761F482819381209719F033
:101220009B838A832BC0909382038093810326C083
:101230002115310519F04217530718F49A01BE0120
:10124000DF01EF010280F381E02DDCCF21153105B4
:1012500009F1281B390B2430310590F412968D9139
:101260009C9113976115710521F0FB019383828393
:1012700004C09093820380938103FD01329644C0A1
:10128000FD01E20FF31F81939193225031092D93B9
:101290003C933AC020917F0330918003232B41F48B
:1012A00020910201309103013093800320937F034A
:1012B00020910001309101012115310541F42DB734
:1012C0003EB74091040150910501241B350BE0917C
:1012D0007F03F0918003E217F307A0F42E1B3F0B6E
:1012E0002817390778F0AC014E5F5F4F2417350798
:1012F00048F04E0F5F1F5093800340937F0381930C
:10130000919302C0E0E0F0E0CF01DF91CF9108952A
:101310000F931F93CF93DF93009709F48CC0FC01C8
:10132000329713821282009181031091820301157A
:10133000110581F420813181820F931F20917F0359
:10134000309180032817390779F5F0938003E093F3
:101350007F0371C0D80140E050E0AE17BF0750F4E2
:1013600012962D913C911397AD012115310509F18C
:10137000D901F3CF9D01DA0133832283608171812A
:10138000860F971F8217930769F4EC012881398132
:10139000260F371F2E5F3F4F318320838A819B8129
:1013A00093838283452B29F4F0938203E093810396
:1013B00042C01396FC93EE931297ED014991599117
:1013C0009E01240F351FE217F30771F4808191818C
:1013D000840F951F029611969C938E938281938120
:1013E00013969C938E931297E0E0F0E0D80112964A
:1013F0008D919C911397009719F0F8018C01F6CF0D
:101400008D919C9198012E5F3F4F820F931F2091E9
:101410007F03309180032817390769F4309729F446
:10142000109282031092810302C0138212821093E1
:10143000800300937F03DF91CF911F910F91089557
:10144000DC0101C06D9341505040E0F708955058C1
:10145000BB27AA270E943F0A0C94400B0E94320B24
:1014600038F00E94390B20F039F49F3F19F426F42C
:101470000C942F0B0EF4E095E7FB0C94290BE92F4D
:101480000E94510B58F3BA17620773078407950738
:1014900020F079F4A6F50C94730B0EF4E0950B2E66
:1014A000BA2FA02D0B01B90190010C01CA01A001B6
:1014B0001124FF27591B99F0593F50F4503E68F111
:1014C0001A16F040A22F232F342F4427585FF3CF52
:1014D000469537952795A795F0405395C9F77EF423
:1014E0001F16BA0B620B730B840BBAF09150A1F06C
:1014F000FF0FBB1F661F771F881FC2F70EC0BA0FF2
:10150000621F731F841F48F4879577956795B79579
:10151000F7959E3F08F0B0CF9395880F08F0992774
:10152000EE0F9795879508950E94050B08F481E0CA
:1015300008950E94590B88F09F5798F0B92F99276A
:10154000B751B0F0E1F0660F771F881F991F1AF0AE
:10155000BA95C9F714C0B13091F00E94730BB1E095
:1015600008950C94730B672F782F8827B85F39F094
:10157000B93FCCF3869577956795B395D9F73EF447
:1015800090958095709561957F4F8F4F9F4F0895EF
:10159000E89409C097FB3EF490958095709561950D
:1015A0007F4F8F4F9F4F9923A9F0F92F96E9BB27C3
:1015B0009395F695879577956795B795F111F8CF3F
:1015C000FAF4BB0F11F460FF1BC06F5F7F4F8F4FAA
:1015D0009F4F16C0882311F096E911C0772321F0A0
:1015E0009EE8872F762F05C0662371F096E8862F38
:1015F00070E060E02AF09A95660F771F881FDAF78F
:10160000880F9695879597F90895990F0008550FBB
:10161000AA0BE0E8FEEF16161706E807F907C0F078
:1016200012161306E407F50798F0621B730B840B80
:10163000950B39F40A2661F0232B242B252B21F45A
:1016400008950A2609F4A140A6958FEF811D811DFA
:10165000089597F99F6780E870E060E008959FEF34
:1016600080EC089500240A94161617061806090639
:10167000089500240A941216130614060506089508
:10168000092E0394000C11F4882352F0BB0F40F490
:10169000BF2B11F460FF04C06F5F7F4F8F4F9F4FD0
:1016A000089557FD9058440F551F59F05F3F71F052
:1016B0004795880F97FB991F61F09F3F79F08795B9
:1016C0000895121613061406551FF2CF4695F1DF42
:1016D00008C0161617061806991FF1CF86957105D2
:1016E000610508940895E894BB2766277727CB0106
:1016F00097F908950E94050B08F48FEF08950E9452
:10170000920B0C94400B0E94320B38F00E94390B64
:1017100020F0952311F00C94290B0C942F0B11241D
:101720000C94740B0E94510B70F3959FC1F3950FAD
:1017300050E0551F629FF001729FBB27F00DB11D55
:10174000639FAA27F00DB11DAA1F649F6627B00DE5
:10175000A11D661F829F2227B00DA11D621F739FCE
:10176000B00DA11D621F839FA00D611D221F749FDC
:101770003327A00D611D231F849F600D211D822F23
:10178000762F6A2F11249F5750409AF0F1F088234A
:101790004AF0EE0FFF1FBB1F661F771F881F915077
:1017A0005040A9F79E3F510580F00C94290B0C94F2
:1017B000740B5F3FE4F3983ED4F386957795679575
:1017C000B795F795E7959F5FC1F7FE2B880F911DA1
:1017D0009695879597F908950E94050B880B990BAC
:1017E0000895A1E21A2EAA1BBB1BFD010DC0AA1F62
:1017F000BB1FEE1FFF1FA217B307E407F50720F07A
:10180000A21BB30BE40BF50B661F771F881F991FF4
:101810001A9469F760957095809590959B01AC013D
:10182000BD01CF010895EE0FFF1F0590F491E02D4B
:10183000099481E090E0F8940C941E0C10E0C5E34C
:10184000D0E004C0FE010E94130C2196C633D107DC
:06185000C9F7F894FFCF78
:101856000000830380001800000000000000000064
:10186600E8FFE8FF00000000000014000000000090
:1018760000000000ECFFECFF00000000000000008C
:1018860000007404E4046400BB0495007300870040
:1018960006000000000018021A02FAFFFAFF000014
:1018A60019021C0218000000000039025002E8FF6D
:1018B600E8FF000046025A025A010C0116016401B3
:1018C60000000000E0041602D001CD01CA01C701E4
:1018D600C4013B01370134011E013E01C200C000B4
:1018E60002000000000066026802FEFFFEFF000024
:1018F60067026A0200000000E204B2020000000073
:10190600E1046402D001CD01CA01C701C401B801D6
:101916007201590140013E01D502B40214000000D3
:10192600000087029E02ECFFECFF00009402A80272
:10193600D20120012A01DC01000000001905190569
:10194600190500000000E3040E0228030000000051
:10195600DF04140200000000DE041202AC00AB003B
:1019660000000000DD041002AC00AB00416E616CAB
:101976006F6750696E3A20002056616C75653A2093
:1019860000204D6561737572656D656E743A200051
:101996006E616E00696E66006F7666000D0A00560F
:0E19A600005374617274696E672E2E2E00005D
:00000001FF
